S0250000683270643130313132345F50726F6A6563745F31335F31315F323032342E7372656387
S11300005FC1000079C1000077C1000075C1000024
S113001073C1000071C100006FC100006DC1000018
S11300206BC1000069C1000067C1000065C1000028
S113003063C1000061C100005FC100005DC1000038
S11300405BC1000059C100009FC6000055C10000FB
S113005053C1000051C100004FC100004DC1000058
S11300604BC1000049C1000047C1000045C1000068
S113007043C1000041C100003FC100003DC1000078
S11300803BC1000039C1000037C1000035C1000088
S113009033C1000031C100002FC100002DC1000098
S11300A02BC1000029C1000027C1000025C10000A8
S11300B023C1000000000000008181188181000735
S11300C0000700147F147F14242A7F2A12231308A4
S11300D0646236495522500005030000001C224189
S11300E0000041221C0014083E081408083E0808B9
S11300F00050300000080808080800606000002074
S1130100100804023E5149453E00427F40004261CE
S11301105149462141454B311814127F102745455A
S113012045393C4A49493001710905033649494971
S113013036064949291E00363600000056360000AE
S11301400814224100141414141400412214080247
S113015001510906324979413E7E1111117E7F49D0
S11301604949363E414141227F4141221C7F494950
S113017049417F090909013E4149497A7F08080834
S11301807F00417F41002040413F017F081422410C
S11301907F404040407F020C027F7F0408107F3E76
S11301A04141413E7F090909063E4151215E7F09D3
S11301B0192946464949493101017F01013F40401F
S11301C0403F1F2040201F3F4038403F6314081425
S11301D06307087008076151494543007F414100A6
S11301E002040810200041417F000402010204407F
S11301F040404040000102040020545454787F4899
S11302004444383844444420384444487F3854549F
S11302105418087E0901020C5252523E7F0804040D
S11302207800447D40002040443D007F1028440075
S113023000417F40007C041804787C08040478386A
S1130240444444387C14141408081414147C7C08A2
S11302500404084854545420043F4440203C404083
S1130260207C1C2040201C3C4030403C442810286A
S1130270440C5050503C4464544C440008364100F3
S113028000007F0000004136080010080810080034
S11302900000000011AE00A8013F2001004000D37F
S11302A00100A100C800DA011281017FA400A600A8
S11302B0D50180D901C2DB01208D01142E00AF00CD
S11302C011241FBECFEFD8E0DEBFCDBF11E0A0E008
S11302D0B1E0ECE1FAE102C005900D92A63CB10751
S11302E0D9F722E0A6ECB1E001C01D92AB31B20710
S11302F0E1F7E7D60C940C0D83CECF93DF9300D0B7
S1130300CDB7DEB78A838FEF8983ACD389838981A4
S1130310882311F0898109C08A81E9D3898389817D
S1130320882311F0898101C080E00F900F90DF9144
S1130330CF910895CF93DF9300D0CDB7DEB78A83F2
S11303408FEF898380E80ED489838981882311F013
S1130350898109C08A8106D489838981882311F01F
S1130360898101C080E00F900F90DF91CF910895B3
S1130370CF93DF93CDB7DEB7A0970FB6F894DEBF67
S11303800FBECDBF88A384E992E09A8389838FEF5F
S11303908D8389819A819C012F5F3F4F3A83298302
S11303A09F838E838E819F81FC01849188878885B9
S11303B08C8336D388A1A1DF8D838D81882311F0AE
S11303C08D81C1C084EEB6DF8D838D81882311F0C9
S11303D08D81B9C080E090E0A0E8BFE38A8B9B8B5D
S11303E0AC8BBD8B20E030E04AE753E46A897B891B
S11303F08C899D8966D7DC01CB018E8B9F8BA88F5E
S1130400B98F20E030E040E85FE36E897F89888D12
S1130410998DD6D688232CF481E090E09B8F8A8F27
S11304203BC020E03FEF4FE757E46E897F89888D1A
S1130430998D43D718163CF520E030E040E251E4B2
S11304406A897B898C899D893CD7DC01CB01BC01FD
S1130450CD01BAD6DC01CB019B8F8A8F0FC089E115
S113046090E09D8F8C8F8C8D9D8D0197F1F79D8FE2
S11304708C8F8A8D9B8D01979B8F8A8F8A8D9B8D04
S1130480892B69F713C06E897F89888D998D9CD6D5
S1130490DC01CB019B8F8A8F8A8D9B8D9F8F8E8FE2
S11304A08E8D9F8D0197F1F79F8F8E8F43C0898129
S11304B09A819C012F5F3F4F3A8329839A878987CA
S11304C089859A85FC0184918B878B8533DF8D83A5
S11304D08D81882311F08D8136C089819A819C0198
S11304E02F5F3F4F3A8329839D878C878C859D8519
S11304F0FC0184918E878E858B8316C089819A81B5
S11305009C012F5F3F4F3A832983988B8F878F8578
S11305109889FC018491898B89890CDF8D838D8175
S1130520882311F08D810FC08B819FEF980F9B83DF
S1130530882321F78C819FEF980F9C83882309F0EF
S1130540B6CF4AD380E0A0960FB6F894DEBF0FBEB4
S1130550CDBFDF91CF910895CF93DF9300D01F9249
S1130560CDB7DEB78FEF8B838CE3C7DE8B838B81B4
S1130570882311F08B8157C081E2DCDE8B838B8171
S1130580882311F08B814FC080E0D4DE8B838B8174
S1130590882311F08B8147C08FE7CCDE8B838B815E
S11305A0882311F08B813FC01092C7011092C601BD
S11305B082E2C0DE8B838B81882311F08B8133C070
S11305C080E0B8DE8B838B81882311F08B812BC074
S11305D087E0B0DE8B838B81882311F08B8123C06D
S11305E01092C9011092C80180E4BCD28B838B8124
S11305F0882311F08B8117C01A8219820DC080E004
S1130600B1D28B838B81882311F08B810CC08981BB
S11306109A8101969A83898389819A81811594406C
S113062070F3DAD280E00F900F900F90DF91CF91AA
S11306300895CF93DF9300D000D01F92CDB7DEB7DB
S11306408A836B834C832D838FEF89838CE355DE00
S113065089838981882311F0898140C081E26ADE1F
S113066089838981882311F0898138C08A8162DE77
S113067089838981882311F0898130C08B815ADE76
S113068089838981882311F0898128C08A81882FF0
S113069090E09093C7018093C60182E24BDE898388
S11306A08981882311F0898119C08C8143DE898373
S11306B08981882311F0898111C08D813BDE898372
S11306C08981882311F0898109C08C81882F90E069
S11306D09093C9018093C8017FD280E00F900F905E
S11306E00F900F900F90DF91CF910895CF93DF93E8
S11306F000D000D01F92CDB7DEB78C836D838FEF0F
S113070089838FE78A8387E08B832B814D816A817C
S11307108C818FDF89838981882311F0898101C0CD
S113072080E00F900F900F900F900F90DF91CF917A
S11307300895CF93DF9300D01F92CDB7DEB78A839D
S11307406B838FEF89838A81882344F58B8187307B
S113075000F582E090E09093C7018093C6018091F8
S1130760C8019091C90101969093C9018093C80171
S11307708091C8019091C901282F8091C601909160
S1130780C701622FB3DF89838981882311F08981AE
S113079006C08B81873010F081E001C080E00F90AB
S11307A00F900F90DF91CF910895CF93DF93CDB742
S11307B0DEB72E970FB6F894DEBF0FBECDBF8D8780
S11307C06E878FEF8B8319821A828E85882F90E033
S11307D08F709927892B09F064C08E85882F90E04B
S11307E0807F9927892B11F080E88A838091C60144
S11307F09091C7018B5F8C838091C8019091C9014E
S11308008D836D818C8195DF8B838B81882311F09F
S11308108B81D1C08CE371DD8B838B81882311F0B4
S11308208B81C9C080E49ED18B838B818823A9F1FD
S11308308B81C1C08D85882F90E09C0120523109A5
S1130840898191E0980F9983482F50E0C901880F5E
S1130850991F880F991F820F931F840F951F8C5423
S11308609F4F9F838E838E819F81FC018491888713
S11308708885898799858A81892B74D18B838B811B
S1130880882311F08B8197C08091C6019091C70194
S113089001969093C7018093C6018981853050F2F7
S11308A077C08E85882F90E08F709927019709F083
S11308B06FC08E85882F90E0807F9927892B11F057
S11308C080E88A838091C6019091C701865F8C83FA
S11308D08091C8019091C9018D836D818C8129DF3C
S11308E08B838B81882311F08B8165C08CE305DDBC
S11308F08B838B81882311F08B815DC080E432D19E
S11309008B838B81882309F43FC08B8154C08D85F0
S1130910882F90E09C0120523109898191E0980F41
S11309209983482F50E0C901880F991F880F991F98
S1130930820F931F840F951F8C549F4F9B878A8728
S11309408A859B85FC0184918C878C858987998510
S11309508A81892B07D18B838B81882311F08B812A
S11309602AC099858A81892BFDD08B838B8188232A
S113097011F08B8120C08091C6019091C70102962D
S11309809093C7018093C6018981853008F4BFCF55
S11309908A81E8D08B838B81882311F08B810BC0F3
S11309A08091C6019091C70101969093C7018093ED
S11309B0C60112D180E02E960FB6F894DEBF0FBEAA
S11309C0CDBFDF91CF910895CF93DF9300D000D0B6
S11309D0CDB7DEB79B838A836C8319820EC089816D
S11309E091E0980F9983882F90E02A813B81820FB0
S11309F0931FFC0180816C81D8DE8981882F90E06F
S1130A002A813B81820F931FFC018081882339F75F
S1130A1080E00F900F900F900F90DF91CF91089589
S1130A20CF93DF93CDB7DEB788EB90E022E0FC01F3
S1130A30208389EB90E0FC018081882F90E0827014
S1130A409927AC01416089EB90E029EB30E0F90192
S1130A502081322F242F232BFC0120830000DF91DF
S1130A60CF910895CF93DF9300D0CDB7DEB789EB54
S1130A7090E029EB30E0F90120812775FC01208307
S1130A808CEB90E024EAFC0120831A82198289818C
S1130A909A8101969A8389838CEB90E0FC01808192
S1130AA088232CF089819A818F3F910580F389EB0B
S1130AB090E0FC018081882F90E0887F9927089737
S1130AC081F089EB90E0FC018081882F90E0887FA1
S1130AD09927409731F089EB90E0FC018081887F71
S1130AE001C080E00F900F90DF91CF910895CF93D4
S1130AF0DF9300D01F92CDB7DEB78B838BEB90E0F2
S1130B002B81220FFC0120838CEB90E024E8FC0174
S1130B1020831A82198289819A8101969A83898312
S1130B208CEB90E0FC01808188232CF089819A81F0
S1130B308F3F910580F389EB90E0FC018081882F41
S1130B4090E0887F9927489731F089EB90E0FC0189
S1130B508081887F01C080E00F900F900F90DF911B
S1130B60CF910895CF93DF9300D01F92CDB7DEB716
S1130B708B838BEB90E02B81FC0120838CEB90E04A
S1130B8024E8FC0120831A82198289819A810196C2
S1130B909A8389838CEB90E0FC01808188232CF07C
S1130BA089819A818F3F910580F389EB90E0FC0164
S1130BB08081882F90E0887F9927889731F089EB8E
S1130BC090E0FC018081887F01C080E00F900F904D
S1130BD00F90DF91CF910895CF93DF93CDB7DEB718
S1130BE08CEB90E024E9FC0120830000DF91CF919D
S1130BF00895CF93DF9300D0CDB7DEB79A8389836E
S1130C0089819A819093CB018093CA0100000F904F
S1130C100F90DF91CF910895CF93DF93CDB7DEB7D7
S1130C2084EC90E027E6FC01208385EC90E0FC0155
S1130C30108280EC90E0FC01108281EC90E028E1CD
S1130C40FC01208382EC90E026E0FC01208305D0A7
S1130C5012D00000DF91CF910895CF93DF93CDB7E9
S1130C60DEB780E091E090931802809317020000B1
S1130C70DF91CF910895CF93DF93CDB7DEB78EE0A8
S1130C8091E090931602809315020000DF91CF91BA
S1130C900895CF93DF9300D0CDB7DEB79A838983CD
S1130CA0000080EC90E0FC0180818823D4F786EC7E
S1130CB090E0FC018081882F90E00F900F90DF91ED
S1130CC0CF910895CF93DF9300D01F92CDB7DEB7B5
S1130CD089837B836A83000080EC90E0FC0180813F
S1130CE0882F90E080729927892BB1F386EC90E0ED
S1130CF02981FC01208380E090E00F900F900F90F9
S1130D00DF91CF910895CF93DF93CDB7DEB781EC18
S1130D1090E021EC30E0F90120812068FC0120837F
S1130D200000DF91CF910895CF93DF9300D0CDB72A
S1130D30DEB79A83898389819A81FC018081813419
S1130D4030F089819A81FC0180818E3560F089813F
S1130D509A81FC018081813688F089819A81FC0125
S1130D6080818E3758F489819A81FC01908180E2D8
S1130D70292F282789819A81FC01208300000F9064
S1130D800F90DF91CF9108951F920F9200905F0012
S1130D900F9211242F933F934F935F936F937F93FD
S1130DA08F939F93AF93BF93EF93FF93CF93DF936F
S1130DB01F92CDB7DEB786EC90E0FC018081898379
S1130DC02091CA013091CB018981F9010995CE01A5
S1130DD00196AADF86EC90E02981FC0120837894B7
S1130DE000000F90DF91CF91FF91EF91BF91AF91F0
S1130DF09F918F917F916F915F914F913F912F912F
S1130E000F9000925F000F901F901895CF93DF937F
S1130E101F92CDB7DEB7898380910F02882F90E0AF
S1130E2001968F739078992324F40197806C9F6FB7
S1130E3001969C0180911002882F90E028173907B1
S1130E4029F580911002882F90E081539E4FFC0178
S1130E5080818093140281E08093130280911102B7
S1130E609091120201969093120280931102809144
S1130E701002882F90E001968F739078992324F4C0
S1130E800197806C9F6F01968093100280910F02EE
S1130E90882F90E081539E4F2981FC01208380910B
S1130EA00F02882F90E001968F739078992324F491
S1130EB00197806C9F6F019680930F0281E080936D
S1130EC0CC0100000F90DF91CF910895CF93DF9371
S1130ED000D0CDB7DEB752C08091CD0191E0980F1C
S1130EE09093CD01682F80E001DC60E08DE191E01A
S1130EF06BDDCE01885B9F4FFC018081882F90E0E1
S1130F0027E030E02C0F3D1F820F931FFC018081EE
S1130F10882F90E0292F2F938F938AE291E0892FD5
S1130F208F938AE291E08F93CE0101969F938F93E2
S1130F309BD20F900F900F900F900F900F9061E045
S1130F40CE01019641DDCE01885B9F4FFC0180817B
S1130F50882F90E001968F739078992324F4019759
S1130F60806C9F6F0196282FCE01885B9F4FFC01F8
S1130F7020838091CD0187708093CD01CE01885B61
S1130F809F4FFC012081CE01895B9F4FFC01808132
S1130F90281709F0A1CF00000F900F90DF91CF9197
S1130FA00895CF93DF9300D000D0CDB7DEB79C83F4
S1130FB08B8351C08DE291E0892F8F938DE291E074
S1130FC08F930AD20F900F908B819C818F5B9F4FE0
S1130FD0FC018081882F90E02B813C81820F931F3C
S1130FE0FC018081882F90E0292F2F938F938AE230
S1130FF091E0892F8F938AE291E08F93CE0101963D
S11310009F938F9331D20F900F900F900F900F906A
S11310100F90CE0101969F938F93DED10F900F9086
S11310208AE090E0ECD18B819C818F5B9F4FFC0127
S11310308081882F90E001968F739078992324F40F
S11310400197806C9F6F0196282F8B819C818F5B09
S11310509F4FFC0120838B819C818F5B9F4FFC0100
S113106020818B819C81805C9F4FFC0180812817AB
S113107009F0A0CF00000F900F900F900F90DF9118
S1131080CF910895CF93DF93CDB7DEB784E690E098
S113109024E630E0F90120812F77FC0120838CEBDA
S11310A090E025E0FC01208388EB90E020E2FC0145
S11310B0208389EB90E0FC0110820000DF91CF9146
S11310C00895CF93DF93CDB7DEB710920F0210923D
S11310D0100210921202109211021092140286E071
S11310E097E087DDCFDF98DD0EDE789480911C01D8
S11310F03FD98093CE018091CE01882321F08BE3E8
S113110091E082D103C080E691E07ED125DA80911E
S1131110CC01882341F11092CC018091CE01882327
S1131120F9F48DB79EB7865491090FB6F8949EBF13
S11311300FBE8DBF8DB79EB7019626E4EFECF1E0AC
S1131140DC0101900D922A95E1F7C0DE8DB79EB7C0
S11311508A5B9F4F0FB6F894DEBF0FBECDBF03C0AE
S11311608FEC91E01EDF80911302882381F21092AC
S1131170130280911402882F90E0292F2F938F93CC
S113118081E891E0892F8F9381E891E08F9324D1B6
S11311900F900F900F900F90809111029091120276
S11311A0292F2F938F9382EA91E0892F8F9382EADC
S11311B091E08F9311D10F900F900F900F90A7CFC4
S11311C02FD008F481E0089557D088F09F5790F00D
S11311D0B92F9927B751A0F0D1F0660F771F881F58
S11311E0991F1AF0BA95C9F712C0B13081F05ED0D8
S11311F0B1E008955BC0672F782F8827B85F39F076
S1131200B93FCCF3869577956795B395D9F73EF4B6
S113121090958095709561957F4F8F4F9F4F08955E
S1131220990F0008550FAA0BE0E8FEEF16161706F3
S1131230E807F907C0F012161306E407F50798F05B
S1131240621B730B840B950B39F40A2661F0232B74
S1131250242B252B21F408950A2609F4A140A695F0
S11312608FEF811D811D089557FD9058440F551F20
S113127059F05F3F71F04795880F97FB991F61F014
S11312809F3F79F087950895121613061406551F8B
S1131290F2CF4695F1DF08C0161617061806991FF7
S11312A0F1CF86957105610508940895E894BB27EC
S11312B066277727CB0197F90895B2DF08F48FEFFB
S11312C008950BD078C069D028F06ED018F095231B
S11312D009F05AC05FC01124EACFC6DFA0F3959F7E
S11312E0D1F3950F50E0551F629FF001729FBB2709
S11312F0F00DB11D639FAA27F00DB11DAA1F649FB5
S11313006627B00DA11D661F829F2227B00DA11D67
S1131310621F739FB00DA11D621F839FA00D611DED
S1131320221F749F3327A00D611D231F849F600D0E
S1131330211D822F762F6A2F11249F5750408AF047
S1131340E1F088234AF0EE0FFF1FBB1F661F771FD3
S1131350881F91505040A9F79E3F510570F014C06A
S1131360A6CF5F3FECF3983EDCF3869577956795BF
S1131370B795F795E7959F5FC1F7FE2B880F911DF1
S11313809695879597F9089597F99F6780E870E097
S113139060E008959FEF80EC089500240A941616E7
S11313A0170618060906089500240A94121613064F
S11313B0140605060895092E0394000C11F48823DD
S11313C052F0BB0F40F4BF2B11F460FF04C06F5FF9
S11313D07F4F8F4F9F4F0895A0E0B0E0E1EFF9E019
S11313E0F4C2AE014B5F5F4FFA0161917191AF019D
S11313F0809117029091180256D0E2E002C36091E6
S113140017027091180237C20F931F93CF93DF9383
S1131410E0911702F0911802238121FF1BC08C0177
S1131420D0E0C0E0F80181918F01609117027091C2
S11314301802DB011896ED91FC911997882331F07D
S11314400995892B79F3DFEFCFEFECCF8AE009958B
S1131450892B19F08FEF9FEF02C08D2F9C2FDF9106
S1131460CF911F910F910895AEE0B0E0E9E3FAE067
S1131470AAC20D891E8986E08C831A8309838FEFA3
S11314809FE79E838D83AE01475E5F4F6F89788DA2
S1131490CE01019608D0EF81F885E00FF11F10828C
S11314A02E96E4E0ACC2ABE0B0E0E8E5FAE07DC241
S11314B06C017B018A01FC0117821682838181FF02
S11314C0BFC1CE0101963C01F6019381F70193FD62
S11314D0859193FF81917F01882309F4ADC1853201
S11314E039F493FD859193FF81917F01853221F435
S11314F0B60190E0C0D1E8CF912C212C312CFFE132
S1131500F315D8F08B3279F038F4803279F08332E5
S1131510A1F4232D20611DC08D3261F0803369F464
S1131520232D216016C0832D8260382EE32DE460C4
S11315303E2E2AC0F32DF8601DC037FC2DC020EDCF
S1131540280F2A3040F08E32B9F436FC75C1232DB1
S11315502064322E19C036FE06C08AE0989E200D03
S11315601124922E11C0EAE02E9E200D1124222E69
S1131570F32DF0623F2E08C08C3621F4832D806851
S1131580382E02C0883641F4F70193FD859193FF0C
S113159081917F018111B3CF982F9F7D9554933012
S11315A028F40C5F1F4F9FE399830DC0833631F0FD
S11315B0833771F0833509F055C020C0F80180816C
S11315C089830E5F1F4F88248394912C530112C08A
S11315D02801F2E04F0E511CF801A080B18036FEC4
S11315E003C0692D70E002C06FEF7FEFC50138D1F1
S11315F04C018201F32DFF773F2E15C0280122E014
S1131600420E511CF801A080B18036FE03C0692D42
S113161070E002C06FEF7FEFC50117D14C01F32DCD
S1131620F0683F2E820133FC19C0822D90E08816A9
S11316309906A0F4B60180E290E01DD12A94F5CF7A
S1131640F50137FC859137FE81915F01B60190E089
S113165012D121102A9421E0821A91088114910454
S113166079F7E1C0843611F0893639F5F80137FE8F
S113167007C060817181828193810C5F1F4F08C014
S113168060817181072E000C880B990B0E5F1F4F30
S1131690F32DFF763F2E97FF09C0909580957095A6
S11316A061957F4F8F4F9F4FF0683F2E2AE030E0C7
S11316B0A3011DD1882E861844C0853731F4232D0B
S11316C02F7EB22E2AE030E025C0932D997FB92ECB
S11316D08F36C1F018F4883579F0AEC0803719F030
S11316E0883721F0A9C0E92FE061BE2EB4FE0DC0F9
S11316F0FB2DF460BF2E09C034FE0AC0292F2660DA
S1131700B22E06C028E030E005C020E130E002C07F
S113171020E132E0F801B7FE07C060817181828167
S113172093810C5F1F4F06C06081718180E090E05F
S11317300E5F1F4FA301DBD0882E8618FB2DFF7789
S11317403F2E36FE0DC0232D2E7FA22E891458F471
S113175034FE0BC032FC09C0832D8E7EA82E05C03A
S1131760B82CA32C03C0B82C01C0B92CA4FE0FC004
S1131770FE01E80DF11D8081803321F49A2D997EBC
S1131780A92E09C0A2FE06C0B394B39404C08A2D46
S1131790867809F0B394A3FC10C0A0FE06C0B2146E
S11317A080F4280C922C9B180DC0B21458F4B60186
S11317B080E290E060D0B394F8CFB21418F42B1800
S11317C002C0982C212CA4FE0FC0B60180E390E047
S11317D052D0A2FE16C0A1FC03C088E790E002C06C
S11317E088E590E0B6010CC08A2D867851F0A1FE00
S11317F002C08BE201C080E2A7FC8DE2B60190E05A
S11318003AD0891430F4B60180E390E034D09A944D
S1131810F8CF8A94F301E80DF11D8081B60190E0C0
S11318202AD08110F6CF222009F44ECEB60180E2F0
S113183090E021D02A94F7CFF6018681978102C0E7
S11318408FEF9FEF2B96E2E1CCC0FC010590615035
S113185070400110D8F7809590958E0F9F1F0895C2
S1131860FC016150704001900110D8F7809590956B
S11318708E0F9F1F08950F931F93CF93DF93FB0148
S1131880238121FD03C08FEF9FEF2CC022FF16C0E0
S113189046815781248135814217530744F4A0813E
S11318A0B1819D012F5F3F4F318320838C9326812B
S11318B037812F5F3F4F3783268314C08B01EC01A0
S11318C0FB010084F185E02D0995892BE1F6D8010F
S11318D016968D919C911797019617969C938E93CB
S11318E01697CE01DF91CF911F910F910895FA01C0
S11318F0AA27283051F1203181F1E8946F936E7F4B
S11319006E5F7F4F8F4F9F4FAF4FB1E03ED0B4E03B
S11319103CD0670F781F891F9A1FA11D680F791F7C
S11319208A1F911DA11D6A0F711D811D911DA11D8D
S113193020D009F468943F912AE0269F112430199D
S1131940305D3193DEF6CF010895462F4770405D38
S11319504193B3E00FD0C9F7F6CF462F4F70405DE7
S11319604A3318F0495D31FD4052419302D0A9F742
S1131970EACFB4E0A6959795879577956795BA953C
S1131980C9F700976105710508959B01AC010A2E02
S113199006945795479537952795BA95C9F7620FD9
S11319A0731F841F951FA01D08952F923F924F927D
S11319B05F926F927F928F929F92AF92BF92CF92DB
S11319C0DF92EF92FF920F931F93CF93DF93CDB7E4
S11319D0DEB7CA1BDB0B0FB6F894DEBF0FBECDBF5C
S11319E009942A88398848885F846E847D848C842D
S11319F09B84AA84B984C884DF80EE80FD800C8136
S1131A001B81AA81B981CE0FD11D0FB6F894DEBF18
S10F1A100FBECDBFED010895F894FFCF88
S1131A1C000000020000000062060000000000004C
S1131A2C0001000000000000490600003C636861EE
S1131A3C726163746572203A20002563000A63683E
S1131A4C61726163746572203A2000446973706C2E
S1131A5C6179204E4F542070726F7065726C7920CE
S1131A6C696E697469616C697A656420212121004D
S1131A7C446973706C61792070726F7065726C79E3
S1131A8C20696E697469616C697A6564202121210D
S1131A9C000A536B697070656420636861726163DA
S1131AAC7465722066726F6D2055617274202563A3
S1131ABC0A004E756D626572206F6620536B6970F7
S1131ACC7065642043686172616374657273203A53
S1091ADC2025640A00004D
S9030000FC
